:020000040800F2
:1000000000000220450A00080D0600080F0600083F
:10001000110600081306000815060008000000007D
:1000200000000000000000000000000017060008AB
:1000300019060008000000001B0600081D06000845
:10004000950A0008950A0008950A0008950A000814
:10005000950A0008950A0008950A0008950A000804
:10006000950A0008950A0008950A0008950A0008F4
:10007000950A0008950A0008950A0008950A0008E4
:10008000950A0008950A0008950A0008950A0008D4
:10009000950A0008950A0008950A0008950A0008C4
:1000A000950A0008950A0008950A0008950A0008B4
:1000B000950A0008950A0008950A0008950A0008A4
:1000C000950A0008950A0008950A0008950A000894
:1000D000950A0008950A0008950A0008950A000884
:1000E000950A0008950A0008950A0008950A000874
:1000F000950A0008950A0008950A0008950A000864
:10010000950A0008950A0008950A0008950A000853
:10011000950A0008950A0008950A0008950A000843
:10012000950A0008950A0008950A0008950A000833
:10013000950A0008950A0008950A00082506000897
:100140003506000845060008950A0008950A0008CB
:10015000950A0008950A0008950A0008950A000803
:10016000950A0008950A0008950A0008950A0008F3
:10017000950A0008950A0008950A0008000000008A
:08018000950A0008950A000829
:1001880053B94AB9002908BF00281CBF4FF0FF31F6
:100198004FF0FF3000F00CB8ADF1080C6DE904CE5B
:1001A80002F00EF9DDF804E0DDE9022304B070473F
:1001B800704700BF0348044B834202D0034B03B18E
:1001C80018477047100000201000002000000000B1
:1001D8000548064B1B1AD90F01EBA301491002D0A1
:1001E800034B03B11847704710000020100000208F
:1001F8000000000010B5064C237843B9FFF7DAFF7A
:10020800044B13B10448AFF300800123237010BDE1
:1002180010000020000000004828000808B5054B21
:100228001BB105490548AFF30080BDE80840FFF75A
:10023800CFBF00BF000000001400002048280008BD
:1002480008B50E480E4B0360032343600023836008
:10025800C3604FF4002202614FF4401242610376FA
:10026800012242768376C3760377437700F076FCE3
:1002780000B908BD00F000F9FBE700BF2C00002022
:100288000068004010B588B00023039304930593D9
:10029800069307930268264B9A4201D008B010BD16
:1002A8000024009403F5E8331A6C42F080621A6463
:1002B8001A6C02F080620092009A01941A6C42F063
:1002C80000721A641A6C02F000720192019A029488
:1002D8001A6B42F002021A631B6B03F002030293CB
:1002E800029B4FF440530393022304930323069382
:1002F8000923079303A90F4800F0D8FF2246214697
:100308003F2000F0ABFF3F2000F0B8FF2246214617
:10031800402000F0A3FF402000F0B0FF2246214615
:10032800412000F09BFF412000F0A8FFB6E700BF86
:10033800006800400004024000B58DB00190002321
:100348000793089301220992029303930493069357
:100358000A920E230B9302A900F0A6FC38B90221D9
:1003680001A800F0E0FD28B90DB05DF804FB00F02D
:1003780083F8F4E700F080F8F6E730B58BB0BDF805
:1003880038C04FF400740494002406940825089596
:10039800079421FA05F48DF808408DF8091022FA1F
:1003A80005F18DF80A108DF80B2023FA05F28DF867
:1003B8000C208DF80D302CFA05F38DF80E308DF8E1
:1003C8000FC001AB0DEB050204A900F037FD0BB01F
:1003D80030BD000030B58BB0002405940694079416
:1003E800089409940094224B1A6B42F080021A6315
:1003F8001A6B02F080020092009A01941A6B42F084
:1004080001021A631A6B02F001020192019A029426
:100418001A6B42F004021A631A6B02F00402029289
:10042800029A03941A6B42F002021A631A6B02F0E2
:1004380002020392039A04941A6B42F040021A6370
:100448001B6B03F040030493049B0A4D22462021B2
:10045800284601F021F820230593012306930794E9
:10046800089405A9284600F021FF0BB030BD00BF55
:10047800003802400008024072B6FEE700B595B0A9
:100488003022002108A802F0F9F80023039304930E
:100498000593069307930193204A116C41F080510C
:1004A8001164126C02F080520192019A02931C4B63
:1004B8001A6842F480421A601B6803F4804302936E
:1004C800029B012308934FF48033099302220E9272
:1004D8004FF480030F9304231093A82111911292D3
:1004E800139308A800F0DEFF98B90F2303930223A3
:1004F8000493002305934FF4A05306934FF48053BD
:100508000793052103A801F037FA20B915B05DF863
:1005180004FBFFF7B1FFFFF7AFFF00BF0038024051
:100528000070004030B583B000F0D8FAFFF7A6FF9E
:10053800FFF750FF00F0DCF900F0A6F900F0BEF973
:1005480000F05EF900F002F9FFF77AFE1C4BFF227B
:100558001A705A70FD229A700022DA7016211971E9
:10056800032159719A710522DA7107221A726222DF
:100578005A720421134801F0A3FD134C204600F0E1
:100588002FFC2046FFF7D8FE0F4D41F28834009427
:1005980023464FF47A724FF4FA612846FFF7EDFECE
:1005A800C82000F0C7FA009423464FF4FA621146B7
:1005B8002846FFF7E2FEC82000F0BCFAE4E700BFD7
:1005C80054000020600000202C00002082B0002190
:1005D80000910B4B5A6C42F480425A645A6C02F4F4
:1005E80080420092009A01911A6C42F080521A647B
:1005F8001B6C03F080530193019B02B0704700BF4E
:1006080000380240FEE7FEE7FEE7FEE7FEE7704738
:100618007047704708B500F07BFA08BD08B5024876
:1006280000F0A0FC08BD00BF2C00002008B502485F
:1006380000F098FC08BD00BF2C00002008B5024857
:1006480000F090FC08BD00BF2C000020034AD2F83F
:10065800883043F47003C2F88830704700ED00E03A
:100668000268094B9A4200D0704782B00023019378
:10067800064B1A6C42F002021A641B6C03F0020368
:100688000193019B02B0704700040040003802400B
:100698000268094B9A4200D0704782B00023019348
:1006A800064B1A6C42F004021A641B6C03F0040334
:1006B8000193019B02B070470008004000380240D7
:1006C80000B589B000230393049305930693079319
:1006D80003681A4A934205D0194A934218D009B0C0
:1006E8005DF804FB00230193164B1A6B42F00202DB
:1006F8001A631B6B03F002030193019B012303930D
:1007080002230493079303A90F4800F0CFFDE6E7FF
:10071800002302930B4B1A6B42F002021A631B6B05
:1007280003F002030293029B8023039302230493A2
:10073800079303A9044800F0B9FDD0E7000400407E
:1007480000080040003802400004024000B58FB0A5
:1007580000230A930B930C930D9308930993019329
:100768000293039304930593069307932248234A1D
:1007780002604AF20F42426083606322C2600361F2
:100788008023836101F002FB30BB4FF480530A934E
:100798000AA9194801F005FC08BB174801F022FB1B
:1007A80000BB00230893099308A9134801F00AFD28
:1007B800D8B9602301930023029302220392059380
:1007C800082201A90C4801F071FB88B90A48FFF713
:1007D80077FF0FB05DF804FBFFF74EFED5E7FFF794
:1007E8004BFEDAE7FFF748FEDBE7FFF745FEE0E7F9
:1007F800FFF742FEEAE700BFA8000020000400401F
:1008080000B58BB0002308930993019302930393D7
:10081800049305930693079319481A4A026044F211
:100828009F12426083606322C260036180238361F8
:1008380001F0D8FAD0B900230893099308A9104801
:1008480001F0C0FCA8B9602301930023029303932D
:10085800059304220DEB0201094801F027FB58B962
:100868000748FFF72DFF0BB05DF804FBFFF704FE08
:10087800E1E7FFF701FEE6E7FFF7FEFDF0E700BF5F
:10088800600000200008004008B50A480A4B0360D1
:100898004FF4E133436000238360C36003610C229B
:1008A80042618361C36101F05BFD00B908BDFFF7D8
:1008B800E3FDFBE7800100200010014008B50A486D
:1008C8000A4B03604FF4E133436000238360C36045
:1008D80003610C2242618361C36101F041FD00B9EB
:1008E80008BDFFF7C9FDFBE73801002000440040C0
:1008F80008B50A480A4B03604FF4E133436000230C
:100908008360C36003610C2242618361C36101F0AB
:1009180027FD00B908BDFFF7AFFDFBE7F000002099
:100928000014014000B58DB0002307930893099384
:100938000A930B9303683B4A934208D03A4A93427E
:1009480029D03A4A934249D00DB05DF804FB002102
:100958000191374B5A6C42F010025A645A6C02F0FB
:1009680010020192019A02911A6B42F001021A6375
:100978001B6B03F001030293029B4FF4C0630793C0
:100988000223089303230A9307230B9307A92948F3
:1009980000F08CFCD8E700210391254B1A6C42F437
:1009A80000321A641A6C02F400320392039A04911A
:1009B8001A6B42F001021A631B6B03F001030493E4
:1009C800049B0C2307930223089303230A9307230A
:1009D8000B9307A9174800F069FCB5E700210591BA
:1009E800134B5A6C42F020025A645A6C02F02002EF
:1009F8000592059A06911A6B42F040021A631B6B26
:100A080003F040030693069B4FF4844307930223A5
:100A1800089303230A9308230B9307A9064800F0B9
:100A280045FC91E7001001400044004000140140DB
:100A3800003802400000024000180240DFF834D0BD
:100A4800FFF704FE0C480D490D4A002302E0D45874
:100A5800C4500433C4188C42F9D30A4A0A4C002300
:100A680001E013600432A242FBD301F059FEFFF704
:100A780059FD7047000002200000002010000020EF
:100A88008C2800081000002064030020FEE7000006
:100A980010B504460E4B1A784FF47A73B3FBF2F391
:100AA8000C4A1068B0FBF3F000F0ECFB68B90F2CAF
:100AB80001D901200AE0002221464FF0FF3000F062
:100AC800CDFB054B1C60002000E0012010BD00BFDD
:100AD80004000020000000200800002008B50B4B8F
:100AE8001A6842F400721A601A6842F480621A6046
:100AF8001A6842F480721A60032000F09DFB0F20F0
:100B0800FFF7C6FFFFF762FD002008BD003C02406A
:100B1800034A1168034B1B780B441360704700BFEE
:100B2800C801002004000020014B1868704700BF6E
:100B3800C801002038B50446FFF7F6FF0546B4F1B2
:100B4800FF3F02D0044B1B781C44FFF7EDFF401B0E
:100B5800A042FAD338BD00BF04000020002800F0EE
:100B6800A18038B5044690F82030D3B122681368C4
:100B780043F001031360FFF7D7FF054623685A685F
:100B880012F0010F10D1FFF7CFFF401B0A28F5D94B
:100B9800636A43F400336362052384F8203001203C
:100BA80038BDFFF76FFBE1E71A6822F002021A600E
:100BB800FFF7BAFF054623685A6812F0020F0DD0F6
:100BC800FFF7B2FF401B0A28F5D9636A43F40033E4
:100BD8006362052384F820300120E1E7227E012AA0
:100BE8003DD01A6822F080021A60637E012B3BD048
:100BF8002268136823F040031360A37E012B39D0C9
:100C08002268136823F020031360E37E012B37D09A
:100C18002268136843F010031360237F012B35D03B
:100C28002268136823F008031360637F012B33D015
:100C38002268136823F004031360A368E26813436F
:100C480022691343626913436268013A21681343B6
:100C5800CB6100206062012384F82030A0E71A6885
:100C680042F080021A60C0E72268136843F040032C
:100C78001360C2E72268136843F020031360C4E7D7
:100C88002268136823F010031360C6E7226813680C
:100C980043F008031360C8E72268136843F00403AD
:100CA8001360CAE70120704790F82030013BDBB29F
:100CB800012B05D9436A43F480234362012070471E
:100CC80030B5464BD3F8002242F00102C3F80022A7
:100CD800D3F8002222F47C52C3F80022D3F8002271
:100CE800486A42EA0022C3F800224A6902F01F0259
:100CF800012000FA02F2D3F81C026FEA020C20EA83
:100D08000200C3F81C02CB69C3B9344BD3F80C02F8
:100D18000CEA0000C3F80C028C884869CD6844EAE4
:100D28000544483043F830408C68088840EA04405D
:100D38004C6904F1480E03EBCE035860CB69012BD4
:100D48001ED08B69002B33D12448D0F804320CEA2A
:100D58000303C0F804320B698BBB2048D0F8143267
:100D68000CEA0303C0F814320B6A012B2ED01B4A7D
:100D7800D2F8003223F00103C2F80032002030BD5F
:100D8800164BD3F80C021043C3F80C028C88486940
:100D98000D6844EA0544483043F8304088894C6976
:100DA8008D6840EA0540483403EBC4035860C8E73F
:100DB8000A48D0F804321343C0F80432CBE7074896
:100DC800D0F814321343C0F81432CDE70349D1F8F0
:100DD8001C321343C1F81C32C9E700BF006400404D
:100DE80070B5044690F82050EDB2012D06D0436A44
:100DF80043F4002343620125284670BD022380F88E
:100E080020300268136823F001031360FFF78CFE9B
:100E1800064623685B6813F0010F0CD0FFF784FEC9
:100E2800831B0A2BF5D9636A43F4003363620523F5
:100E380084F82030E0E700256562DDE730B590F8FA
:100E480020C00468A4680CF1FF3C5FFA8CFCBCF17C
:100E5800010F62D814F0E05F59D0C4F3016C01248B
:100E680004FA0CF41C608B68002B3DD10D68CB682C
:100E7800046843EA45550CF118031B01E550036863
:100E88000C690CF1180E03EB0E135C600B7D012B43
:100E980035D0D17993791B0443EA0163517943EA48
:100EA800012314790168234301EB0C11C1F88C313B
:100EB800D17893781B0443EA0163517843EA01230C
:100EC800117802680B4302EB0C12C2F888310268F1
:100ED8000CF1180C4FEA0C1C52F80C3043F00103CB
:100EE80042F80C3000201DE04C6843EAC403CC688B
:100EF80023430CF11804240105682B51BFE703684C
:100F080003EB0E13596841F480715960C1E7436AD5
:100F180043F400134362012004E0436A43F480234E
:100F28004362012030BD90F82030013BDBB2012B39
:100F380005D9436A43F4802343620120704702685D
:100F480053690B43536100207047704770477047DF
:100F580070477047704770477047704770477047D1
:100F6800704770472DE9F84F054603685C69D3F868
:100F780004809F68D3F80CA0D3F81090D3F818B069
:100F880014F001063BD017F0010616D001229A6032
:100F980017F0020F08D117F0040F0CD117F008064C
:100FA80006D04FF4805608E0FFF7CFFF002604E094
:100FB800FFF7CEFF01E04FF4006617F4807F0DD0F5
:100FC8002B684FF480729A6017F4007F40F0968087
:100FD80017F4806F00F0968046F4005617F4803FAF
:100FE8000DD02B684FF480329A6017F4003F40F020
:100FF800938017F4802F00F0938046F4004614F095
:10100800080F07D01AF0100F04D046F400762B68AA
:101018001022DA6014F0040F03D01AF0080F40F021
:10102800898014F0020F05D02B68DB6813F0030FDA
:1010380040F0878014F0400F07D019F0100F04D04B
:1010480046F480662B6810221A6114F0200F02D033
:1010580019F0080F79D114F0100F04D02B681B6910
:1010680013F0030F78D114F4003F02D018F0100FDA
:1010780076D114F4803F02D018F0080F77D114F419
:10108800004F37D018F0040F31D014F4807F04D00B
:101098001BF0010F01D046F0010614F4007F04D0C4
:1010A8001BF0020F01D046F0020614F4806F04D042
:1010B8001BF0040F01D046F0040614F4006F16D09C
:1010C8001BF0700B13D0BBF1400F66D056D8BBF1A4
:1010D800200F5CD0BBF1300F5CD0BBF1100F01D1F9
:1010E80046F008062A68936923F0700393612B6819
:1010F80004225A60002E56D1BDE8F88F2846FFF723
:1011080025FF6BE717F4006F02D046F4804665E7C9
:101118002846FFF71EFF61E72846FFF718FF6EE72E
:1011280017F4002F02D046F4803668E72846FFF708
:1011380011FF64E72B680822DA602846FFF70CFFE6
:101148006FE72846FFF707FF74E72B6808221A6144
:101158002846FFF703FF7EE72846FFF7FEFE82E7F3
:101168002B6810225A602846FFF7F9FE81E72B68A2
:1011780008225A602846FFF7F3FE80E7BBF1500FBC
:101188000ED0BBF1600FADD146F48076AAE746F0E9
:101198001006A7E746F02006A4E746F04006A1E7B8
:1011A80046F080069EE76B6A33436B622846FFF77A
:1011B800D8FEA1E7002807DB00F01F024009012341
:1011C8009340024A42F82030704700BF00E100E037
:1011D800002808DB0901C9B200F1604000F5614050
:1011E80080F80013704700F00F000901C9B2014BE5
:1011F8001954704714ED00E000B500F00700C0F185
:10120800070CBCF1040F28BF4FF0040C031D062B7C
:101218000FD9C31E4FF0FF3E0EFA0CF021EA000171
:1012280099400EFA03FE22EA0E0241EA02005DF836
:1012380004FB0023EEE70000074AD36823F4E063C9
:101248001B041B0C000200F4E060034343F0BF637F
:1012580043F40033D360704700ED00E010B5044656
:10126800054BD868C0F30220FFF7C6FF01462046A9
:10127800FFF7AEFF10BD00BF00ED00E008B5FFF7B7
:1012880099FF08BD0138B0F1807F0BD24FF0E02301
:101298005861054AF02182F823100020986107223E
:1012A8001A6170470120704700ED00E000230F2B02
:1012B80000F2E98070B582B065E085684FEA430EB8
:1012C800032404FA0EF425EA0405CC6804FA0EF4A3
:1012D8002C438460446824EA02044A68C2F300127A
:1012E8009A40224342605CE0DC08083450F824202D
:1012F80003F00705AD004FF00F0E0EFA05FE22EAC7
:101308000E0E0A69AA4042EA0E0240F824205CE068
:10131800072200E0002202FA0EF22A4302345A4D54
:1013280045F82420594A94686FEA0C0224EA0C050F
:101338004E6816F4801F01D04CEA0405534CA56092
:10134800E46802EA04054E6816F4001F01D04CEA6E
:1013580004054E4CE560646802EA04054E6816F41C
:10136800003F01D04CEA0405484C656024682240DF
:101378004D6815F4803F01D04CEA0402434C2260CA
:1013880001330F2B7DD801229A400C6804EA020C25
:1013980032EA0404F4D14C6804F00304013C012C43
:1013A8008BD94A6802F00302032A09D0C4685D0099
:1013B8000322AA4024EA02048A68AA402243C2609F
:1013C8004A6802F00302022A8ED004684FEA430EEC
:1013D800032202FA0EF224EA02044A6802F0030227
:1013E80002FA0EF2224302604A6812F4403FC7D064
:1013F80000220192264A546C44F480445464526C8E
:1014080002F480420192019A9C08A51C1E4A52F8D7
:10141800255003F0030E4FEA8E0E0F2202FA0EF249
:1014280025EA02051B4A90423FF474AF02F5806238
:1014380090421AD002F58062904218D002F580627C
:10144800904216D002F58062904214D002F5806274
:10145800904212D002F58062904210D002F580626C
:1014680090423FF455AF082255E7012253E7022284
:1014780051E703224FE704224DE705224BE70622F6
:1014880049E702B070BD704700380140003C014098
:1014980000380240000002400AB181617047090427
:1014A80081617047002800F0E08170B582B0044681
:1014B800036813F0010F3BD09F4B9B6803F00C03AC
:1014C800042B2CD09C4B9B6803F00C03082B21D0D9
:1014D8006368B3F5803F4FD0B3F5A02F52D0964B39
:1014E8001A6822F480321A601A6822F480221A607C
:1014F8006368002B50D0FFF717FB05468E4B1B681F
:1015080013F4003F14D1FFF70FFB401B6428F5D9F3
:101518000320B1E1884B5B6813F4800FD8D0864B69
:101528001B6813F4003F03D06368002B00F09F8111
:10153800236813F0020F54D07F4B9B6813F00C0FF5
:101548003ED07D4B9B6803F00C03082B33D0E36837
:10155800002B68D0794B01221A60FFF7E5FA05469F
:10156800754B1B6813F0020F54D1FFF7DDFA401BCF
:101578000228F5D903207FE16F4A136843F48033CA
:101588001360B5E76C4B1A6842F480221A601A6837
:1015980042F480321A60ABE7FFF7C6FA0546664B9D
:1015A8001B6813F4003FC3D0FFF7BEFA401B642842
:1015B800F5D9032060E1604B5B6813F4800FC6D156
:1015C8005D4B1B6813F0020F03D0E368012B40F05A
:1015D8005081594A136823F0F803216943EAC1038B
:1015E8001360236813F0080F42D063696BB3534B41
:1015F8000122C3F8802EFFF797FA05464E4B5B6F22
:1016080013F0020F34D1FFF78FFA401B0228F5D9E7
:10161800032031E1484A136823F0F803216943EABB
:10162800C1031360DDE7454B00221A60FFF77CFA1F
:101638000546414B1B6813F0020FD2D0FFF774FA2E
:10164800401B0228F5D9032016E13C4B0022C3F8C1
:10165800802EFFF769FA0546374B5B6F13F0020FD0
:1016680006D0FFF761FA401B0228F5D9032003E1F1
:10167800236813F0040F77D02F4B1B6C13F0805F97
:1016880033D1002301932C4B1A6C42F080521A6418
:101698001B6C03F080530193019B0125284B1B68A9
:1016A80013F4807F23D0A368012B34D0052B38D0C6
:1016B800214B1A6F22F001021A671A6F22F00402F6
:1016C8001A67A368002B3DD0FFF72EFA06461A4B7F
:1016D8001B6F13F0020F46D1FFF726FA801B41F269
:1016E80088339842F3D90320C6E00025D6E7144A88
:1016F800136843F480731360FFF716FA0646104B1D
:101708001B6813F4807FCED1FFF70EFA801B0228E6
:10171800F5D90320B0E0084A136F43F001031367BB
:10172800CFE7054B1A6F42F004021A671A6F42F0AE
:1017380001021A67C5E700BF0038024000004742AF
:1017480000700040FFF7F0F90646524B1B6F13F08C
:10175800020F08D0FFF7E8F9801B41F2883398425E
:10176800F3D9032088E0EDB9A369002B00F083804A
:10177800484A926802F00C02082A51D0022B17D06E
:10178800454B00221A66FFF7CFF90446414B1B6808
:1017980013F0007F42D0FFF7C7F9001B0228F5D9E4
:1017A800032069E03B4A136C23F080531364DBE7A2
:1017B800394B00221A66FFF7B7F90546354B1B6807
:1017C80013F0007F06D0FFF7AFF9401B0228F5D9C8
:1017D800032051E0E369226A1343626A43EA8213F1
:1017E800A26A5208013A43EA0243E26A43EA026300
:1017F800284A5360284B01221A66FFF795F90446D8
:10180800244B1B6813F0007F06D1FFF78DF9001BEE
:101818000228F5D903202FE000202DE000202BE03E
:10182800012B2BD01B4B5B6803F48001E2699142CA
:1018380026D103F03F02216A8A4223D1616A47F622
:10184800C0721A40B2EB811F1ED103F44031A26A64
:101858005208013AB1EB024F18D103F07063E26A03
:10186800B3EB026F14D1002006E00120704701207D
:1018780002E0012000E0002002B070BD0120FBE77B
:101888000120F9E70120F7E70120F5E70120F3E758
:101898000120F1E7003802400000474208B5334B09
:1018A8009B6803F00C03042B5BD0082B5BD12F4BF8
:1018B8005A6802F03F025B6813F4800F2CD02B4B60
:1018C8005868C0F388104FEA401CBCEB000C6EEB64
:1018D8000E0E4FEA8E1343EA9C634FEA8C11B1EB6C
:1018E8000C0163EB0E03DB0043EA5173C90011EBF3
:1018F800000C43F10003590200234FEA4C2041EA4F
:10190800DC51FEF73DFC194B5B68C3F3014301331F
:101918005B00B0FBF3F008BD144B5868C0F38810A7
:101928004FEA401CBCEB000C6EEB0E0E4FEA8E1318
:1019380043EA9C634FEA8C11B1EB0C0163EB0E0395
:10194800DB0043EA5173C90011EB000C43F10003BB
:10195800990200234FEA8C2041EA9C51FEF710FCC3
:10196800D1E70348D7E70348D5E700BF003802406E
:1019780000127A000024F400002800F09B8070B563
:101988000D4604464F4B1B6803F007038B4208D2F1
:10199800CBB24C4A1370136803F007038B4240F034
:1019A8008B80236813F0020F17D013F0040F04D0B4
:1019B800454A936843F4E0539360236813F0080F93
:1019C80004D0414A936843F4604393603E4A936865
:1019D80023F0F003A1680B439360236813F0010F11
:1019E80032D06368012B21D09A1E012A25D9364AA4
:1019F800126812F0020F61D033498A6822F003029C
:101A080013438B60FFF790F806462F4B9B6803F053
:101A18000C036268B3EB820F16D0FFF785F8801BC2
:101A280041F288339842F0D9032042E0264A1268EE
:101A380012F4003FE0D101203BE0234A126812F083
:101A4800007FD9D1012034E01E4B1B6803F0070347
:101A5800AB4207D9EAB21B4B1A701B6803F00703A5
:101A6800AB422DD1236813F0040F06D0164A9368B1
:101A780023F4E053E1680B439360236813F0080FE5
:101A880007D0114A936823F46043216943EAC103EC
:101A98009360FFF703FF0C4B9B68C3F303130B4AD8
:101AA800D35CD8400A4B18600A4B1868FEF7F0FF61
:101AB800002070BD012070470120FAE70120F8E7F7
:101AC8000120F6E7003C0240003802406828000880
:101AD8000000002008000020014B1868704700BF74
:101AE8000000002008B5FFF7F7FF044B9B68C3F31D
:101AF8008223034AD35CD84008BD00BF00380240A7
:101B08006028000808B5FFF7E7FF044B9B68C3F39C
:101B18004233034AD35CD84008BD00BF00380240B6
:101B28006028000830B4036A026A22F001020262E7
:101B38004268846924F0730C0C6844EA0C0423F0AE
:101B4800020C8B6843EA0C03114DA84203D005F53B
:101B58008065A84205D123F00803CD682B4323F004
:101B680004030B4DA84203D005F58065A84207D1B0
:101B780022F440724D6945EA020C8A6942EA0C0275
:101B8800426084614A684263036230BC704700BFA8
:101B98000000014030B4036A026A22F480720262D3
:101BA8004268C46924F0730C0C6844EA0C0523F4F9
:101BB80000738C6843EA0423114CA04203D004F557
:101BC8008064A04206D123F40063CC6843EA04236E
:101BD80023F480630A4CA04203D004F58064A04239
:101BE80007D122F440524C6942EA04128C6942EA55
:101BF80004124260C5614A68C263036230BC704720
:101C08000000014030B4036A026A22F48052026282
:101C18004468C26922F4E6420D6842EA052223F4C8
:101C280000538D6843EA0533094DA84203D005F5F2
:101C38008065A84204D124F480444D6944EA85149F
:101C48004460C2614A680264036230BC704700BFE6
:101C58000000014010B4036A046A24F0010404621D
:101C6800846924F0F00C4CEA021223F00A030B43B7
:101C7800826103625DF8044B704710B4036A046A1A
:101C880024F010040462846924F4704C4CEA023293
:101C980023F0A00343EA0113826103625DF8044B59
:101CA8007047836823F070030B4343F00703836096
:101CB800704700000368344A904212D0B0F1804F58
:101CC8000FD0A2F57C4290420BD002F58062904280
:101CD80007D002F58062904203D002F57842904224
:101CE80003D123F070034A681343274A90422AD04D
:101CF800B0F1804F27D0A2F57C42904223D002F564
:101D0800806290421FD002F5806290421BD002F59B
:101D18007842904217D002F57052904213D002F5E3
:101D2800806290420FD002F5806290420BD0A2F5FB
:101D38009832904207D002F58062904203D002F5B3
:101D48008062904203D123F44073CA68134323F09E
:101D580080034A69134303608B68C3620B6883621C
:101D6800094B984203D003F58063984201D10B696F
:101D7800036301234361036913F0010F03D003696F
:101D880023F00103036170470000014040B310B520
:101D9800044690F83D30F3B1022384F83D302146E3
:101DA80051F8040BFFF786FF012384F8463084F8C6
:101DB8003E3084F83F3084F8403084F8413084F86D
:101DC800423084F8433084F8443084F8453084F84D
:101DD8003D30002010BD80F83C30FEF741FCDBE7C9
:101DE8000120704740B310B5044690F83D30F3B178
:101DF800022384F83D30214651F8040BFFF75AFFBF
:101E0800012384F8463084F83E3084F83F3084F863
:101E1800403084F8413084F8423084F8433084F804
:101E2800443084F8453084F83D30002010BD80F8F7
:101E38003C30FEF72DFCDBE70120704730B4036A25
:101E4800026A22F0100202624468826922F4E642C1
:101E58000D6842EA052223F020038D6843EA051342
:101E6800114DA84203D005F58065A84206D123F09C
:101E78008003CD6843EA051323F040030A4DA842C6
:101E880003D005F58065A84207D124F440644D6964
:101E980044EA85048D6944EA8504446082614A689D
:101EA8008263036230BC70470000014038B590F887
:101EB8003C30012B66D004460D46012380F83C30A7
:101EC8000C2A5AD8DFE802F0075959591B595959B1
:101ED8003059595944000068FFF724FE2268936975
:101EE80043F0080393612268936923F00403936124
:101EF8002268936929690B43936100203EE00068DA
:101F0800FFF79CFF2268936943F40063936122689A
:101F1800936923F48063936122689369296943EA8A
:101F280001239361002029E00068FFF733FE22684F
:101F3800D36943F00803D3612268D36923F004030B
:101F4800D3612268D36929690B43D361002015E066
:101F58000068FFF757FE2268D36943F40063D36132
:101F68002268D36923F48063D3612268D36929691D
:101F780043EA0123D361002000E00120002384F814
:101F88003C3038BD0220FCE710B4846824F47F4C50
:101F980042EA03220A4342EA0C0282605DF8044BDB
:101FA800704790F83C30012B78D010B504460123D7
:101FB80080F83C30022380F83D300268936823F4AF
:101FC8007F4323F0770393600B68602B4CD023D8B2
:101FD800402B54D011D8202B03D00AD80BB1102B8A
:101FE80005D119462068FFF75CFE002028E0012093
:101FF80026E0302BF5D0012022E0502B0AD1CA6808
:1020080049680068FFF726FE50212068FFF749FE5F
:10201800002015E0012013E0B3F5805F3AD0B3F556
:10202800005F14D0702B37D1CB684A688968006884
:10203800FFF7AAFF2268936843F0770393600020B4
:10204800012384F83D30002384F83C3010BDCB6870
:102058004A6889680068FFF797FF2268936843F425
:10206800804393600020EBE7CA6849680068FFF77F
:1020780004FE60212068FFF714FE0020E0E7CA682C
:1020880049680068FFF7E6FD40212068FFF709FE70
:102098000020D5E70020D3E70120D1E702207047D0
:1020A80001F01F014FF0010C0CFA01FC036A23EA4E
:1020B8000C030362036A8A401343036270470000FB
:1020C80010B504460846002942D194F83E30DBB2E8
:1020D800013B18BF0123002B6ED1002851D10223E8
:1020E80084F83E30012201462068FFF7D9FF2368B3
:1020F800334A934203D002F58062934203D15A6C6B
:1021080042F400425A6423682D4A934249D0B3F1FD
:10211800804F46D0A2F57C42934242D002F58062BD
:1021280093423ED002F5806293423AD002F578425B
:10213800934236D002F57052934232D0A2F59432CF
:1021480093422ED01A6842F001021A60002032E051
:10215800042908D008290DD094F84130DBB2013B9E
:1021680018BF0123B7E794F83F30DBB2013B18BF33
:102178000123B0E794F84030DBB2013B18BF0123DC
:10218800A9E7042805D0082807D0022384F841309D
:10219800A8E7022384F83F30A4E7022384F84030FC
:1021A800A0E79A6802F00702062A07D01A6842F0E8
:1021B80001021A60002010BD0120FCE70020FAE7A8
:1021C8000000014090F83C20012A3DD010B403469D
:1021D800012280F83C20022280F83D2002685068E5
:1021E800946820F0700C086840EA0C0050601A6887
:1021F800164882421AD0B2F1804F17D0A0F57C4021
:10220800824213D000F5806082420FD000F58060D2
:1022180082420BD000F57840824207D000F570501A
:10222800824203D0A0F59430824204D124F0800485
:10223800496821439160012283F83D20002083F8FA
:102248003C005DF8044B70470220704700000140D5
:1022580010B504460268136923F44053C1680B4360
:102268001361836802691A4343691A43C3691A43AD
:102278000168CB6823F4164323F00C031343CB60A7
:102288000268536923F4407381690B4353610368FF
:10229800314A934206D002F58062934202D0FFF79A
:1022A80021FC01E0FFF72EFCE369B3F5004F29D0CC
:1022B8000021031849411B1841F10001C90041EAF6
:1022C8005371DB00181863684FEA83024FEA93736F
:1022D80041F10001FDF754FF204AA2FB00314909F2
:1022E800642303FB11031B013233A2FB03235B09A5
:1022F80003F0F00202EB011203F00F03216813440C
:102308008B6010BD0023021843EB0301121841F142
:102318000001C90041EA5271D200101841F10001D0
:10232800626892185B41FDF72BFF0C4AA2FB003153
:102338004909642303FB1103DB003233A2FB0323A7
:102348005B095A0002F4F87202EB011203F007036A
:10235800216813448B60D4E7001001401F85EB51BE
:1023680060B310B5044690F8413013B3242384F8C1
:1023780041302268D36823F40053D3602046FFF726
:1023880067FF2268136923F4904313612268536935
:1023980023F02A0353612268D36843F40053D360BF
:1023A80000206064202384F8413084F84230606360
:1023B80010BD80F84030FEF7B5FAD7E70120704726
:1023C8002DE9F047089D0E4604460F46002B4AD1DA
:1023D80094468C45B2FA82F260D942B1C2F1200328
:1023E800974020FA03F30CFA02FC1F4394404FEA8B
:1023F8001C4E1FFA8CF6B7FBFEF1230C0EFB11776F
:1024080043EA074301FB06F098420AD91CEB030391
:1024180001F1FF3780F01581984240F212810239AC
:1024280063441B1AA4B2B3FBFEF00EFB103344EA5C
:10243800034400FB06F6A6420AD91CEB040400F18B
:10244800FF3380F00081A64240F2FD8064440238E8
:1024580040EA0140A41B00211DB1D4400023C5E976
:102468000043BDE8F0878B4205D90DB1C5E90001ED
:1024780000210846F5E7B3FA83F1002946D1B342B3
:1024880002D3824200F2F580841A66EB030201202F
:102498001746002DE5D0C5E90047E2E7002A40F0DD
:1024A8009380A1EB0C034FEA1C471FFA8CFE012115
:1024B800B3FBF7F607FB1630230C43EA00430EFB89
:1024C80006F0984208D91CEB030306F1FF3802D244
:1024D800984200F2D08046461B1AA4B2B3FBF7F02C
:1024E80007FB103344EA03440EFB00FEA64508D957
:1024F8001CEB040400F1FF3302D2A64500F2B680BB
:102508001846A4EB0E0440EA0640A5E7C1F12007EF
:102518008B4022FA07FC4CEA030C06FA01FE20FA6B
:1025280007F426FA07F344EA0E0400FA01F84FEA22
:102538001C404FEA1449B3FBF0FE1FFA8CF600FB6F
:102548001E3349EA03430EFB06F9994502FA01F2E4
:102558000BD91CEB03030EF1FF3A80F085809945F7
:1025680040F28280AEF1020E6344A3EB0909A4B2E3
:10257800B9FBF0F300FB139944EA094403FB06F6A0
:10258800A64208D91CEB040403F1FF3068D2A64226
:1025980066D9023B644443EA0E40A41BA0FB02E652
:1025A800B4427346B14652D34FD05DB1B8EB030283
:1025B80064EB090404FA07F722FA01F31F43CC403D
:1025C800C5E9007400214CE7C2F1200120FA01F3AB
:1025D8000CFA02FC26FA01F1964033434FEA1C47F5
:1025E8001FFA8CFEB1FBF7F007FB1016190C41EA35
:1025F800064100FB0EF68E4204FA02F408D91CEBE1
:10260800010100F1FF382DD28E422BD902386144E6
:10261800891B9BB2B1FBF7F607FB161143EA01438E
:1026280006FB0EF1994208D91CEB030306F1FF38AB
:1026380014D2994212D9023E63445B1A46EA004119
:1026480036E73946EDE6184602E7F045ADD2BEEB6F
:10265800020366EB0C060138B146A6E74646ECE7EE
:10266800034698E74046D3E7D6467EE764440238F7
:1026780047E708460DE7023E63442DE7830730B578
:1026880047D0541E002A3ED0CAB2034601E0013C9E
:1026980039D303F8012B9D07F9D1032C2CD9CDB2DE
:1026A80005EB05250F2C05EB054535D9A4F11002DE
:1026B80022F00F0C03F1100EE6444FEA121C1A46E2
:1026C800C2E90055C2E9025510327245F8D10CF141
:1026D800010214F00C0F03EB021204F00F0C13D0DC
:1026E800ACF1040323F003030433134442F8045BFE
:1026F8009342FBD10CF003042CB1C9B21C4403F87B
:10270800011BA342FBD130BD64461346002CF4D113
:10271800F9E703461446C0E71A46A446E0E700BFB7
:1027280070B50F4B0F4DAB42A3EB050607D0B610A3
:10273800002455F8043B01349847A642F9D800F024
:102748007FF8094D094B5E1BAB424FEAA60606D03F
:10275800002455F8043B01349847A642F9D870BDC7
:102768008028000880280008802800088828000899
:10277800704700BF704700BF024B13B1024800F01A
:1027880005B8704700000000A12700080023014693
:102798001A46184600F014B838B5074D074C2C1BDC
:1027A800A41005D0013C55F8043D9847002CF9D1F8
:1027B800BDE8384000F04AB88C280008882800088E
:1027C8002DE9F8431B4D0646286898460F46914662
:1027D800FFF7CEFF184B1C681CB3286865681F2DCF
:1027E80022DC4EB96B1C0235636044F82570FFF794
:1027F800C1FF0020BDE8F88304EB85010123C1F87F
:102808008890D4F88821AB401A43022EC4F8882156
:10281800C1F80881E6D1D4F88C211A43C4F88C2178
:10282800E0E7064C1C60D8E7FFF7A4FF4FF0FF3045
:10283800E0E700BF0C000020D0010020D4010020F8
:10284800F8B500BFF8BC08BC9E467047F8B500BF95
:08285800F8BC08BC9E46704765
:10286000000000000102030400000000000000005E
:08287000010203040607080938
:0828780050FBFF7F010000008E
:08288000812700082502000871
:04288800FD01000846
:10288C000024F4000100000010000000CC01002026
:0400000508000A45A0
:00000001FF
